:020000040800F2
:1000000068DF012081070108210501082305010897
:100010002505010827050108290501080000000041
:10002000000000000000000000000000299100080E
:100030002B05010800000000D1900008D17E0008C7
:10004000DD070108E1070108E5070108E9070108E4
:10005000ED070108F1070108F5070108F907010894
:10006000FD07010801080108050801080908010841
:100070000D080108110801081508010819080108F0
:100080001D080108210801082508010800000000DA
:100090000000000000000000000000002908010826
:1000A0002D0801082D05010831080108350801084F
:1000B00033050108390801083D0801084108010815
:1000C00045080108490801084D08010851080108C0
:1000D00055080108590801085D08010800000000E2
:1000E00061080108650801086908010800000000AE
:1000F0000000000000000000000000006D08010882
:10010000000000007108010875080108790801085D
:1001100000000000000000000000000000000000DF
:100120007D0801088108010885080108890801087F
:100130008D08010800000000000000000000000021
:100140000000000000000000000000003905010868
:100150009108010895080108990801089D080108FF
:10016000A1080108A5080108000000000000000027
:10017000000000000000000000000000000000007F
:1001800000000000A90801080000000000000000B5
:10019000AD080108B10801082DE9F04F06468BB003
:1001A00096F8530000250024052804DBB06F10B139
:1001B000304600F0F9FDF16FD1B1306CC0F3401062
:1001C00078B996F8530020B100232822304600F079
:1001D000C7FB304600F0A4FD0128F06F88BF012462
:1001E00018B1F06F02F05EFAF567002C40F0B483AE
:1001F00096F85300052818DA022840F05D8396F837
:100200005210306C022940F2C78210F0060F05D060
:10021000C0F3C00010B9304602F0EBFC082086F8AD
:100220005300304600F0EBFC46E30228E7D0002400
:100230004FF00808DFF86C9B06F18200B8E100BFC0
:1002400007F1360BBBF1460F38BF4FF0460B1CB120
:10025000E069584580F0D6810021584602F0D5F972
:10026000050000F0AB80C5F81CB044B1E269A1699B
:10027000A86903F07FFA204602F014FAC6E1A869E3
:10028000462206F1820103F075FABFE1B7F1000FD3
:1002900000F1968096F85300052840F04082306CBB
:1002A000C0F3401000285BD006F1D80003F04EFDEB
:1002B000002855D0306C20F02000306400259AF8DA
:1002C0000D0040F001008AF80D00306C40F48240CF
:1002D0003064D6F8F800C6F8FC0096F853000528FC
:1002E00001DB082832D1316CC1F38000002800F016
:1002F000CF81C1F3C000002800F0BE81354665B152
:10030000686D00B96E65286895F82C1040F00400FF
:10031000CA0748BF40F48070286000207065012043
:10032000316C60F34201316496F853000B280DD80C
:10033000DFE810F0B9010C000C000C000C000C0000
:100340000C00B901B901B9010C00B901062186F808
:100350005310304600F053FC15B1284602F0FCFD66
:1003600096F858000428C0F0B48196F85300052888
:10037000C0F2A181082800F09E81316896F82C20F7
:1003800041F02001530748BF41F480610B283160E0
:100390000DD8DFE810F08C010C000C000C000C00F4
:1003A0000C000C008C018C018C010C008C010820CD
:1003B00086F853004FEA060000F021FC4FF0FF37AB
:1003C000D6F8400010F4407F00F0DF819AF80D006D
:1003D00000F0F70050218AF80C1040F010000FB127
:1003E00040F0080007F1280101298AF80D00C0F249
:1003F000CC81250007D1002006F1820246236D46FC
:10040000099006920793002D00F0CA80AF69002E74
:1004100000F0AE81706F002800F08581C26803692A
:100420000068C018821A521E9A4228BFD21A00BF12
:10043000D6F8DC00336CDFF8ECCB904288BF104676
:1004400013EA0C0FB6F84A3018BF0020984203D2C6
:100450009A4228BF184600BF96F8C93020FA03F226
:100460004FF6FD739A4228BF4FF6FC7213041B0E21
:1004700043EA02233B86D6F8E830326CC018706439
:1004800022F48072C2F340200028326400F04E81D2
:10049000022060F34A22D6F804013264401EC7F8F5
:1004A0002600D7F82600D7F82620120202F47F0291
:1004B00042EA0062D7F82600D7F82630000A00F496
:1004C0007F40024342EA1362C7F82620D6F8E800CC
:1004D000020202F47F02030A42EA006203F47F434D
:1004E0001A4342EA1062C7F82A2080200A0AB87527
:1004F00042EA01223A82002E1CBFD9F814000028DB
:1005000000F04081D7F81A20C7F81E20C7F81A005B
:100510000E31788CBA8CB8847A84DFF80C0B0088A2
:10052000020A42EA0022DFF8000B7A8214220388D2
:100530005B1C03800020B882E961388307F10E015B
:1005400004F08AFB010A41EA002189B2C9433983D8
:100550000122E969384604F07DFA788E10B94FF629
:10056000FF717986002068620622B91D384603F0C3
:1005700001F906224946B81D03F0FCF8002128467F
:1005800004F014FC788CB98CB88479840622D7F8EE
:100590001E00C7F81A00394617F1060003F0EAF802
:1005A000B8F1010800F0F180002C3FF445AEA069DD
:1005B00000F1220A002701979AF80D1041F010016E
:1005C0008AF80D10B06F00283FF464AEB6F84A0008
:1005D00001287FF65FAED6F8CC1001AA06F1D8004C
:1005E00003F00FFC0746012FFFF650AEDFF83C1A70
:1005F000086800283FF424AEB4F1000F40F20C6B01
:100600003FF42AAE07F136002546E0612C46B06F74
:10061000AA690168019D0369ED18691A994228BF0A
:10062000C91A0123009302F1220A3B46363204F034
:1006300021FC316C44F24002114040297FF42AAE83
:10064000B16F8B680969019A5B189A1A8A4228BFB0
:10065000521A82427FF41EAE9AF80D0040F001005B
:100660008AF80D00316CD6F80401381841F4804145
:10067000C6F8FC0031640DE6756D002D7FF43FAEC9
:10068000502080F31188BFF34F8FBFF36F8FFEE7C9
:10069000306896F82C1040F008008A0748BF40F4F4
:1006A0000070306040E60020A6F848004EE60021C9
:1006B000A6F848107BE6306C10F0060F3FF477AEDA
:1006C000C0F3C00000287FF472AE304602F091FA09
:1006D0006DE627BB306CC0F3002000287FF470AEBD
:1006E00004F0CBFEF16D411A96F8580044F62062F2
:1006F00008B140F6B8328A42BFF462AE04F0BDFEE3
:10070000F06540F6C411306CA6F8481040F4007053
:10071000306496F85800401C86F8580050E6012FC7
:10072000BFF654AE4CE6F26E82E600BFD6F8040186
:10073000020202F47F02030A42EA006203F47F43EA
:100740001A4342EA1062C7F8262097F82F00C20722
:100750007FF5BCAED6F80431D6F8FC20CB18283B88
:1007600093423FF4B3AE00F0FE0087F82F00ADE6F1
:10077000D7F82600D7F82A20C7F82620C7F82A007D
:10078000B3E600BFD7F81E00BCE6002C00F0948052
:10079000204601F087FF8FE0C0F3C020002875D10C
:1007A000B06B010201F47F01020A41EA006102F428
:1007B0007F42114341EA10610091684601A905F0AA
:1007C00090FD012808D096F85200401C86F852008F
:1007D000009805F065FE6FE0DFF8C855B38FB26B87
:1007E000B18C686905F0FAFE040065D0316C002018
:1007F00041F4006186F85200316406F1820046211E
:1008000005F084FF062201A906F1880002F0B2FF7C
:100810000820A6F88E0045214FF46050A6F89200FB
:1008200086F890100620802186F8990086F89810A6
:100830006869C6F8A000B06B010201F47F01020AEA
:1008400041EA006102F47F42114341EA1061C6F8B7
:100850009C10C6F80441B08F010A41EA0021A6F8B5
:10086000A410B08C010A41EA00210020C6F8E8007B
:10087000A6F8A6100220502186F8B10086F8B01024
:10088000304600F0B1FB304600F069F906F1A401F2
:10089000304600F07BF9024602F11400800086F831
:1008A000B000002396F85200401C86F8520028320F
:1008B0000021304600F054F8304600F031FA96F846
:1008C000530008280BD8DFE800F005050A0A0A05DE
:1008D0000A0A0500002528460BB0BDE8F08F04F099
:1008E000CCFD316E0125401A47F23152904233D38C
:1008F00096F85300052819DB082817D0316896F8B8
:100900002C2041F02001530748BF41F480610B289F
:10091000316015D8DFE800F006141414141414061E
:10092000060614060020A6F8480009E0306C10F016
:10093000060F05D0C0F3C00010B9304602F059F9D7
:10094000082086F85300304600F059F9306CC0F3A7
:10095000800008B14FF0FF3528460BB0BDE8F08F9E
:10096000F0B50C008BB01D4607D14625079500F168
:1009700082036C46099106930025002C00F0ED805F
:10098000A669002800F08880416F49B1CF680B69E3
:100990000968C918CF1B7F1E9F4202D3FF1A00E0CF
:1009A000C76ED0F8DC10036CDFF878C6B94288BF98
:1009B000394613EA0C0FB0F84A3018BF00219942AB
:1009C00002D29F4228BF194690F8C97021FA07F356
:1009D0004FF6FD77BB4228BF4FF6FC731F043F0E56
:1009E00047EA03273786D0F8E870036CC9194164D9
:1009F00023F480730364C3F34021F1B1022161F356
:100A00004A23D0F804110364491EC6F82610D6F80C
:100A10002610D6F826301B0203F47F0343EA016355
:100A2000D6F82610D6F82670090A01F47F410B4348
:100A300043EA1763C6F826301EE0D0F804110B0213
:100A400003F47F030F0A43EA016307F47F473B4344
:100A500043EA1163C6F8263096F82F10CB070BD562
:100A6000D0F80471D0F8FC30D719283F9F421CBF42
:100A700001F0FE0186F82F10D0F8E8100B0203F405
:100A80007F030F0A43EA016307F47F473B4343EACE
:100A90001163C6F82A3007E0D6F82610D6F82A30B7
:100AA000C6F82630C6F82A10130A802143EA02232A
:100AB000B175338200281DBFBA4840690028D6F8B6
:100AC0001E00D6F81A10C6F81E10C6F81A000E320C
:100AD000708CB18CB0847184DFF84C0501880B0AEE
:100AE00043EA012373820188491C01800020B082FF
:100AF000E2613083142206F10E0104F0ADF8010A20
:100B000041EA002189B2C94331830122E1693046BB
:100B100003F0A0FF708E10B94FF6FF7171860020B0
:100B200060620622B11D304602F024FE06229D4975
:100B3000B01D02F01FFE2946204604F037F965B9C2
:100B4000708CB18CB08471840622D6F81E00C6F871
:100B50001A003146B01D02F00DFE0BB0F0BD10B50D
:100B600082B0B0F84C20019240F2B451D0F8044168
:100B70000094D0F8D420D0F8E830D0F8D0404A43E0
:100B80006143D83002F008FF02B010BD30B4B0F8B5
:100B90004C20CA7502230B750424150A4C758D75FB
:100BA000D0F8D030B0F84C2053430022B3F5803F4A
:100BB00013D35B08521CB3F5803F22BF5B08521C65
:100BC000B3F5803F09D35B08521CB3F5803F22BFC9
:100BD0005B08521CB3F5803FEBD280F8C920032399
:100BE00001220A764B768B7690F8C900C8768C770E
:100BF0000A774A770220C8770C2030BC704710B5BE
:100C0000044604F03AFC20660021206C84F8581059
:100C100020F4C060206404F030FCE06510BD0000EA
:100C200070B50546002495F8530005280E4603DBF1
:100C3000082818BF012100D10021052E03DB082E52
:100C400018BF012000D1002081424FD0002843D09E
:100C5000296CC1F3800028B3C1F3C000B8B12C46A1
:100C60006CB1606D00B96565206840F004002060DB
:100C700094F82C10CA0748BF40F480702060002010
:100C800068650120296C60F34201296414E06C6DF1
:100C9000002CE5D1502080F31188BFF34F8FBFF3B4
:100CA0006F8FFEE7286895F82C1040F008008A073F
:100CB00048BF40F40070286095F853000B2823D8F3
:100CC000DFE800F006222222222222060606220661
:100CD0000021A5F8481017E095F82C1028684A075D
:100CE00040F02000E7D540F48060E4E7300018BF12
:100CF000082E09D1286C10F0060F05D0C0F3C000F3
:100D000010B9284601F075FF85F853602846FFF7B3
:100D100076FF24B12046BDE8704002F01DB970BDD9
:100D200030B581B0044644F62065009594F8530030
:100D3000022815D1206CC0F3C02068B194F852008D
:100D4000032805D240F6B832401E8240009218E0D7
:100D500042F6F821009114E04FF4FA72009210E08C
:100D6000B4F84800C8B9D4F8CC106A4604F1D800E9
:100D700003F013F8009921B900281ABF012100914E
:100D800000950099AA4B4FF47A704143A1FB0332BE
:100D9000500A08BF0120A4F84800B4F8480001B088
:100DA00030BD00001000002030B5044681B0A06FB7
:100DB000021D5568D3681168ED18691A994228BF59
:100DC000C91A01291BDB126804F1D80002F032FFB6
:100DD000012814DBA16F8C680A694B68A418E31A18
:100DE000934228BF9B1A834288BF034648681B185A
:100DF0004B604B68934202D34868821A4A6001B044
:100E000030BD0000F0B581B00546886900F12206CA
:100E10000027707BB268B168090201F47F0141EAE2
:100E20000261B268B368120A02F47F421143C0073C
:100E300041EA136104D5D5F8EC20521CC5F8E8202E
:100E40002A6CC2F3803040B9296CD5F8F800C5F897
:100E5000FC0041F48041296407E0D5F8FC00401C07
:100E6000814204BF42F480322A64286CD5F8FC1019
:100E7000C0F30040002857D1C5F8F8101120707356
:100E8000002495F85300052801DB082840D1296C7F
:100E9000C1F3800020B3C1F3C000B0B12C466CB1E7
:100EA000606D00B96565206840F00400206094F82A
:100EB0002C10CA0748BF40F4807020600120296CC4
:100EC0006F6560F34201296414E06C6D002CE6D17B
:100ED000502080F31188BFF34F8FBFF36F8FFEE771
:100EE000286895F82C1040F008008A0748BF40F4A5
:100EF0000070286095F853000B2809D8DFE800F04F
:100F0000060808080808080606060806A5F8487036
:100F10000A2285F853202846FFF771FE002C40D0A6
:100F2000204602F019F83CE0491CC5F8F810296C7D
:100F3000C1F3C03008B9707333E0C1F340400028FA
:100F40000CBF10200020707395F85300052818DBA3
:100F5000082816D0296895F82C2041F02001530765
:100F600048BF41F480610B28296014D8DFE800F005
:100F7000061313131313130606061306A5F8487079
:100F800009E0286C10F0060F05D0C0F3C00010B9BE
:100F9000284601F02EFE082085F853002846FFF76A
:100FA0002EFED5F8F810C5F80411707B18B195F82D
:100FB00014712837FFB295F8140114308000307393
:100FC00001B03846F0BD00B581B08269502382F887
:100FD0002E3082F82F100023014628220020FFF730
:100FE000BFFC002001B000BD30B4816B114D0B027D
:100FF00003F47F030C0A43EA016304F47F442343B0
:1010000043EA11630C4C696965684B4040F2B45285
:101010002B4218BF4FF4AF62A0F84C20A0F84A2032
:1010200030BC70478000040060DB0120D407010859
:10103000986E12831000002098D901202DE9F04FFE
:1010400080468BB0D8F8180000F122010191019A76
:10105000497B019C029127465288110A41EA0221EC
:10106000019A1288130A43EA0223626865682D0216
:1010700005F47F0545EA026562687C68120A02F49D
:101080007F42154345EA14653C46A268A7683F02C3
:1010900007F47F0747EA0267A268A468120A02F40D
:1010A0007F421743B8F1000F47EA146707D1502079
:1010B00080F31188BFF34F8FBFF36F8FFEE738B90E
:1010C000502080F31188BFF34F8FBFF36F8FFEE77F
:1010D000D8F81C20362AC0F0EF8100F10E0E9BB22A
:1010E000DEF81020DEF81000DEF81040DEF810C048
:1010F000DEF80C60000200F47F0040EA0260DEF8D7
:101100000C20120202F47F0242EA0662DEF80C6052
:10111000360A240ADEF80C9006F47F4604F47F4475
:101120003243204342EA196289B240EA1C6002F06D
:10113000C9F9040019D094F853000B2807D8DFE848
:1011400000F014060606060606141414061494F895
:1011500053000021012884F8521040F0F2800298D8
:1011600000F01F00022812D005E0029800F01F00D6
:10117000102800F0A1810298410700F19D811421FF
:101180004046FFF720FF00200BB0BDE8F08FD8F8F5
:101190001860DFF814A3D6F81A20738CDAF814005C
:1011A0008946A18C05F01AFA05006ED0216CC1F3B6
:1011B000C000002871D041F00401A146216464659B
:1011C000718CD8F818000A0A42EA0122A9F83C20DA
:1011D0002230D6F81A10D6F81A20120202F47F0232
:1011E00042EA0162D6F81A10D6F81A30C9F804514A
:1011F000090A01F47F410A4342EA1362C9F8382020
:1012000041684268120202F47F0242EA01624168C8
:101210004368090A01F47F410A4342EA1362C9F8AC
:10122000E8204846FFF7E0FE4846FFF798FC99F8AB
:10123000530005281CDB08281AD0D9F8001041F00B
:101240002001C9F8001099F82C20530748BF41F439
:1012500080610B28C9F800100AD8DFE800F0060901
:10126000090909090906060609060020A9F8480027
:10127000032189F853104846FFF7C1FCD8F818102D
:10128000462209F1820002F075FA5FEA090440F093
:10129000208100200BB0BDE8F08FB4F84E00B4F808
:1012A0005010884248D206220121022001F03DFA66
:1012B000070018BF17F1010F3ED0E069F861216AFD
:1012C000396294F8260087F82600E16EF966206FEF
:1012D0003867616E7966A06EB866D4F8D010C7F82A
:1012E000D010D4F8D400C7F8D400A06A20B1B862F6
:1012F000E06A40F00500F8620123DAF81400049077
:101300000822A08C010A41EA0021ADF80E107C658C
:1013100003A9386C40F004003864B4F84E00401C57
:10132000A4F84E00384601F0B9FB18B1384601F078
:1013300060FCAAE7B94643E714214046FFF743FEA5
:10134000A3E702994A0740F1B180022819D1D4F8E5
:101350000401401C874240F0AF80206C10F0060F63
:1013600005D0C0F3C00010B9204601F042FC0020B7
:1013700084F853002046FFF742FC00200BB0BDE884
:10138000F08FD4F8E8108D421CD10528E5DB082841
:10139000E3D0216894F82C2041F02001530748BF86
:1013A00041F480610B282160E1D8DFE800F00706F6
:1013B00006060606060707070607D8E70020A4F872
:1013C0004800D4E7A9423EBFD4F8DC0041188D4262
:1013D00072D2D8F818001021502280F82F1080F80F
:1013E0002E20D8F81840D4F82600D4F82A10C4F8D3
:1013F0002610C4F82A004FF420518020A0752182C5
:10140000D4F81E00D4F81A10C4F81E10C4F81A003C
:10141000A18C608CA0846184DFF8800C01880A0AAA
:1014200042EA0122628214220188491C01800020C4
:10143000A0823621C8F81C10208304F10E0103F0AD
:101440000BFC010A41EA002189B2C9432183012230
:10145000D8F81C10204603F0FDFA608E10B94FF644
:10146000FF7161860020C8F824000622A11D2046D5
:1014700002F080F906220C49A01D02F07BF9002140
:10148000404603F093FC608CA18CA084618406220A
:10149000D4F81E00C4F81A002146A01D02F06AF913
:1014A00000200BB0BDE8F08F1000002001F01F01FC
:1014B000022905D1052803DB00200BB0BDE8F08F21
:1014C000D8F8180000F12201142204F1A40002F05F
:1014D00051F92046FFF793FB0198017B01F0F001E1
:1014E000502940F2C780D8F81800223000F11407C4
:1014F000017B502940F2BE8009094D1FAD06D8F886
:101500001C102D0E362940F2B5803639A942C0F0A4
:10151000B180407B400800F001002646044601E00F
:101520002D1A0744002D1CBF3878002800F0A18038
:101530000128F5D0022DC0F09C80032810D1022D87
:1015400040F297807878032840F0938034B1B878DF
:1015500086F8CA00316C41F4801131640320DFE762
:1015600002282DD1042DC0F084807878042840F022
:101570008080B978F87840EA0120B6F84C108142B2
:1015800001D0002875D0884218D2316C41F0010199
:101590003164B6F84A10884238BFA6F84A00D6F837
:1015A000DC10A6F89601B1FBF0F14143C6F8DC105F
:1015B000A6F89401A6F84C00A6F84A000420AFE76C
:1015C00097F801A0BAF1020F4FF0000951DB554521
:1015D0004FD3052848D1AAF1020A5FFA8AF00828F9
:1015E0004FF00209C0F2408007F1020B0BF104003A
:1015F000427801789BF80030120442EA0162817857
:10160000C07842EA01229BF80110024309049BF8CA
:10161000020041EA03619BF8033041EA00211943CB
:1016200006F1D80002F0DCFC0346B06F002818BFBA
:10163000002B0FD000210091002203F01BFC30682A
:1016400096F82C1040F002008A0748BF40F4007062
:10165000C6F80000AAF1080A5FFA8AF0082809F122
:1016600008090BF1080BC1DA59FA8AF000287FF457
:1016700057AF34460198C089010A41EA0021029817
:1016800089B282075CBF94F8CA008140C4F8CC10CC
:101690004FF00009D8F8181001F12206706872683E
:1016A000120202F47F0242EA006370687268000A64
:1016B00000F47F40184340EA126A707B009001F109
:1016C0000E0301F1220001F12202057BB3F802C0F2
:1016D000AD0805F03C055719D8F81C204FEA1C232B
:1016E00043EA0C230E3A9BB29342C8BF134605F15E
:1016F00014029A4200F10C02BABF5D1B143D002592
:1017000053789A060BD50C30C088020A42EA0022B0
:10171000284692B29542C8BF104617442D1A94F835
:101720005300052809DBD4F8E8000AF101029042D1
:1017300003D1206C40F48070206405EB0A02D4F8D9
:10174000F000121A012AA4BF05EB0A00C4F8F00049
:1017500001F1220042684168090201F47F0141EA77
:10176000026142684368120A02F47F42114341EA6F
:10177000136115B984F814912FE094F853000428EC
:10178000F8DB606F48B18368026900688018C31A8B
:101790005B1E934202D39B1A00E0E36E2A4604F1DB
:1017A000D80002F081F900280DD401462B463A46B4
:1017B000204601F0A9FEA84205D014214046FFF7BB
:1017C00002FC00F0BCBED4F8083133B10022002185
:1017D000204601F099FEC4F80891D8F8180094F852
:1017E000147100F1220B67B13A4604F5AC710BF1AC
:1017F000140001F0BFFF07F1140080008BF80C000B
:101800001CE094F85300042818D9206CC10715D5A2
:10181000400840002064042102208BF814008BF85B
:1018200015106021B4F84A00000A8BF8160004274E
:10183000B4F84A008BF817008BF80C1094F853009A
:10184000042802BF009800F01F00022805D10320E1
:1018500084F853002046FFF7D2F90098C10710D54D
:10186000216CC1F3C03060B905EB0A00C4F8EC008C
:1018700041F400412164C1F3803010B941F40031DA
:10188000216494F85300801E082800F24683DFE8A4
:1018900010F000020903000209007D007D004403EE
:1018A00044037D00D8F8180000F1220696F80DA038
:1018B00070687168090201F47F0141EA0062706892
:1018C0007168000A00F47F40104340EA116BF08910
:1018D000010A41EA002194F8CA0089B28140C4F8A3
:1018E000CC105FEACA6126D5B068B168090201F47C
:1018F0007F0141EA0061B068B268000A00F47F40ED
:10190000014341EA126104F1D80002F060FB034692
:10191000A06FA8B18BB100210091002203F0AAFAB8
:1019200048B1206894F82C1040F002008A0748BFA4
:1019300040F400702060A06F10B12046FFF734FA29
:10194000D4F8F800C4F80401206C810458BF5FEAA1
:10195000CA7221D5C0F38030A0B904F1D80001F0DB
:10196000B6FF824604F1D80002F0F0F9BAF1000F98
:1019700018BF002810D0D4F8E800AB44ABEB00004F
:10198000022809DA206C40F40050206441462046C9
:10199000FFF738FA8146C0E2102070736DB107F18D
:1019A00014008000307307F12809206CC0F38030E8
:1019B00018B1D4F8FC00C4F8F800002F40F0AD8254
:1019C000D8F8180000F1220A002101919AF80D00C0
:1019D00040F010008AF80D00A06F00286DD0B4F818
:1019E0004A00022869D3D4F8CC1001AA04F1D80027
:1019F00002F007FA0746012F5CDBDFF8982B10682E
:101A000007F13601E8B98B46BBF1460FD8F81C0048
:101A100038BF4FF0460B584513D20021584600F00E
:101A2000F4FD060000F0F080C6F81CB0D8F81C20C9
:101A3000D8F81810B06901F09DFE404600F032FE63
:101A400002E04646C8F81C10B046A06FB2690168B3
:101A5000DDF804C003699C44ACEB0101994228BF46
:101A6000C91A0123009302F1220A3B46363203F0E1
:101A700001FA226C44F240010A40402A1DD1A16FB4
:101A80008B680969019A5B189A1A8A4228BF521A10
:101A9000824212D19AF80D0040F001008AF80D0040
:101AA000216CD4F80401381841F48041C4F8FC00DA
:101AB000216402E0002F00F1CF8094F85300052844
:101AC00040F0C880206CC0F3401000286AD004F1B8
:101AD000D80002F03BF9002864D0206C20F02000F0
:101AE000206400269AF80D0040F001008AF80D00ED
:101AF000206C40F482402064D4F8F800C4F8FC0064
:101B000094F85300052801DB082841D1216CC1F36A
:101B1000800020B3C1F3C000B0B12646706D00B99B
:101B20007465306840F00400306096F82C10CA07E5
:101B300048BF40F480703060002060650120216C57
:101B400060F34201216414E0666D002EE6D150205E
:101B500080F31188BFF34F8FBFF36F8FFEE72068CC
:101B600094F82C1040F008008A0748BF40F4007039
:101B7000206094F853000B280AD8DFE800F006092B
:101B8000090909090906060609060021A4F84810F2
:101B9000062084F853002046FFF731F816B130468E
:101BA00001F0DAF994F85800042830D394F853007F
:101BB000052819DB082817D0216894F82C2041F05B
:101BC0002001530748BF41F480610B28216015D8DC
:101BD000DFE800F0061414141414140606061406A4
:101BE0000020A4F8480009E0206C10F0060F05D092
:101BF000C0F3C00010B9204600F0FBFF082084F8B5
:101C000053002046FEF7FBFF4FF0FF3724E00FBBE9
:101C1000206CC0F30020F8B903F02FFCE16D411AED
:101C200094F8580044F6206208B140F6B8328A426F
:101C300012D203F022FCE06540F6C411206CA4F837
:101C4000481040F40070206494F85800401C84F858
:101C5000580001E0012F04DA206C10F4407F00F0FE
:101C60005C819AF80D0000F0F7008AF80D00502111
:101C70009AF80D008AF80C1040F010000FB140F0F7
:101C800008002837012F8AF80D00C0F24681B946B6
:101C900043E1D8F8180000F1220606F10C0A9AF880
:101CA000010071687268120202F47F0242EA016365
:101CB00071687268090A01F47F41194341EA126BA5
:101CC00094F853101022022908BF122200F01700C6
:101CD00090424AD0052918DB082916D0206894F8CC
:101CE0002C2040F02000530748BF40F480600B29AF
:101CF000206014D8DFE801F0061313131313130642
:101D000006061306A4F8489009E0206C10F0060FB0
:101D100005D0C0F3C00010B9204600F06AFF0820CB
:101D200084F8530007F128092046FEF768FFB068E1
:101D3000B168090201F47F0141EA0061B068B2684C
:101D4000C4F8E8B0000A00F47F40014341EA1261A0
:101D5000C4F8041114379AF8010040F00400BF00E1
:101D60008AF801008AF80070D7E0A08FA18CA4F84F
:101D70009201A4F8901194F8530002281ED110216A
:101D800084F8B1108AF80110B4F84A30D4F804216C
:101D9000594604F1D80001F062FE0BF10100C4F8CD
:101DA000F000C4F8E800D4F8F800401CC4F8F800CB
:101DB000D4F80C01401CC4F80C0102E00DB9C4F8C1
:101DC000E8B0D4F8F400401CC4F8040194F85300BF
:101DD000022800D045B107F1280914371020BF00B0
:101DE0008AF801008AF80070206CC0F3005020B916
:101DF000002184F8C90084F8CA10002794F8530021
:101E0000052801DB082841D1216CC1F3800020B3F3
:101E1000C1F3C000B0B12746786D00B97C65386861
:101E200040F00400386097F82C10CA0748BF40F40F
:101E300080703860002060650120216C60F34201F1
:101E4000216414E0676D002FE6D1502080F31188E3
:101E5000BFF34F8FBFF36F8FFEE7206894F82C100D
:101E600040F008008A0748BF40F40070206094F8F2
:101E700053000B280AD8DFE800F006090909090910
:101E80000906060609060021A4F84810052084F872
:101E900053002046FEF7B3FE002F3ED0384601F037
:101EA0005BF83AE031462046FEF770FE00F1280963
:101EB0001221143071738000307394F85300052898
:101EC00018DB082816D0216894F82C2041F0200156
:101ED000530748BF41F480610B2821600AD8DFE82E
:101EE00000F0060909090909090606060906002085
:101EF000A4F84800042184F853102046FEF77FFE22
:101F00000AF10100C4F8F000C4F8E800D4F8F400C5
:101F1000401CC4F80C01C4F8F800B9F1010F47DB0C
:101F2000D8F81800626CD4F8E87000F12201D71BD1
:101F300085B3B4F84A00B7EB400F2BDB206CC0F33D
:101F40008030002808BFB9F1280F23D194F853003E
:101F5000052804BF487B10281CD1E06F404504D001
:101F600008B100F09FFBC4F87C80B4F84A008542B9
:101F700009D3B7EB400F06DB14204FF00008A4F89C
:101F80004800C14614E002214FF00008A4F84810B0
:101F9000C1460DE0E06F28B1404518BF00F082FB5C
:101FA0000020E06700234A4641462046FEF7D8FC61
:101FB000B9F1010FC0F2C0820827384E4FEA040978
:101FC000B8F1000F14BFD8F8180009F1820000F131
:101FD000220A002401949AF80D1041F010018AF8A9
:101FE0000D10D9F87800002800F08A80B9F84A006E
:101FF0000228C0F08580D9F8CC1001AA09F1D800D8
:1020000001F0FFFE0446012C76DBDFF88815086836
:10201000002845D0B8F1000F40F20C6B00F04E8064
:1020200004F136004546C8F81C00A846D9F87800E7
:10203000AA690168019D0369ED18691A994228BFD0
:10204000C91A0123009302F1220A2346363202F014
:1020500011FFD9F8401044F24002114040294FD1FD
:10206000D9F878108B680969019A5B189A1A8A4224
:1020700028BF521A824243D19AF80D0040F0010065
:102080008AF80D00D9F84010D9F80401201841F45D
:102090008041C9F8FC00C9F8401031E060DB012044
:1020A00004F1360BBBF1460F38BF4FF0460BB8F1C9
:1020B000000F03D0D8F81C005845B1D20021584673
:1020C00000F0A3FA050000F0BF80B8F1000FC5F8DA
:1020D0001CB00AD0D8F81C20D8F81810A86901F054
:1020E00049FB404600F0DEFA9FE7A869462209F165
:1020F000820101F03FFB98E7B4F1000F00F1A680E8
:1021000099F85300052840F0E981D9F84000C0F360
:102110004010002868D009F1D80001F017FE00280F
:1021200062D0D9F8400020F02000C9F84000002516
:102130009AF80D0040F001008AF80D00D9F840002F
:1021400040F48240C9F84000D9F8F800C9F8FC0012
:1021500099F85300052801DB08283BD1D9F8401035
:10216000C1F38000002800F06981C1F3C00008B10C
:102170004D4604E0D9F85450002D00F05781686DA9
:1021800008B9C5F85490286895F82C1040F0040060
:10219000CA0748BF40F4807028600020C9F8540086
:1021A0005FF00100D9F8401060F34201C9F8401017
:1021B00099F853000B280DD8DFE810F04D010C0002
:1021C0000C000C000C000C000C004D014D014D01E9
:1021D0000C004D01062189F853104846FEF70FFD0B
:1021E00015B1284600F0B8FE99F858000428C0F050
:1021F0004A8199F853000528C0F23681082800F07A
:102200003381D9F8001099F82C2041F020015307B0
:1022100048BF41F480610B28C9F800100DD8DFE8F1
:1022200010F01E010C000C000C000C000C000C0047
:102230001E011E011E010C001E01082089F853001A
:102240004FEA0900FEF7DBFC4FF0FF34D9F84000FD
:1022500010F4407F00F06F819AF80D0000F0F70055
:1022600050218AF80C1040F010000CB140F008002A
:1022700004F1280101298AF80D00C0F25C815FEAAF
:10228000080407D1002009F1820246236C46099018
:1022900006920793002C00F0C580D9F87400A56958
:1022A000002800F01F81C26803690068C018821A04
:1022B000521E9A4228BFD21AD9F8DC00D9F8403011
:1022C000DFF8D4C2904288BF104613EA0C0FB9F869
:1022D0004A3018BF0020984202D29A4228BF1846BE
:1022E00099F8C93020FA03F24FF6FD739A4228BFDD
:1022F0004FF6FC7213041B0E43EA02232B86D9F817
:10230000E830D9F84020C018C9F8440022F480729F
:10231000C2F340200028C9F8402000F0E7800220E6
:1023200060F34A22D9F80401C9F84020401EC5F8DC
:102330002600D5F82600D5F82620120202F47F02E6
:1023400042EA0062D5F82600D5F82630000A00F4EB
:102350007F40024342EA1362C5F82620D9F8E8001C
:10236000020202F47F02030A42EA006203F47F439E
:102370001A4342EA1062C5F82A208020A8750A0A8A
:1023800042EA012285482A824069002800F0D08074
:10239000D5F81A20C5F81E20C5F81A000E31688C31
:1023A000AA8CA8846A843088020A42EA00226A82DF
:1023B00000223088401C3080AA82E16100202883FE
:1023C000142205F10E0102F047FC010A41EA002146
:1023D00089B2C94329830122E169284602F03AFB08
:1023E000688E10B94FF6FF71698600206062062280
:1023F000A91D284601F0BEF906226849A81D01F072
:10240000B9F90021204602F0D1FC688CA98CA8847F
:1024100069840622D5F81E00C5F81A002946A81DB1
:1024200001F0A8F97F1E7FF4CBAD84E0502080F34B
:102430001188BFF34F8FBFF36F8FFEE7D9F800000D
:1024400099F82C1040F008008A0748BF40F400704B
:10245000C9F80000ACE60020A9F84800BAE600215F
:10246000A9F84810E9E600BFD9F8400010F0060FBF
:102470003FF4E3AEC0F3C00000287FF4DEAE484670
:1024800000F0B7FBD9E64CBBD9F84000C0F3002000
:1024900000287FF4DBAE02F0F0FFD9F85C10411A9F
:1024A00099F8580044F6206208B140F6B8328A42E2
:1024B000BFF4CCAE02F0E1FFC9F85C0040F6C411F5
:1024C000D9F84000A9F8481040F40070C9F840005D
:1024D00099F85800401C89F85800B7E6012CBFF65F
:1024E000BBAEB3E6D9F86C20E6E600BFD9F804012C
:1024F000020202F47F02030A42EA006203F47F430D
:102500001A4342EA1062C5F8262095F82F00C20748
:102510007FF524AFD9F80431D9F8FC20CB18283B3B
:1025200093423FF41BAF00F0FE0085F82F0015E743
:10253000D5F81E002CE74C46B8F1000F02D04046FB
:1025400000F0B0F82046FEF7EBFB01200BB0BDE831
:10255000F08F70B40246124C908CE568030A43EA8F
:1025600000239BB2002000E06D6804F108018D4259
:102570000ED02E689E4202BFEE6896F827100629FC
:10258000F2D1316CC1F340010029EDD05665012034
:1025900070BC7047D40701088000040010000020C0
:1025A000D8DA012070B5524DD5F8F80140BB0C21A6
:1025B0000C2004F046F9C5F8F80138B9502080F332
:1025C0001188BFF34F8FBFF36F8FFEE749A104F06F
:1025D00030FC05F5F07004F0B9FC2E460C24002008
:1025E000B061304604F0BFFCF660314605F5F0708E
:1025F00004F0CAFC2836641EF1D10C20C5F8F401A1
:10260000D5F8F80100B1012070BD70B50446002571
:1026100040F20560844243D2354ED6F8F8010028D6
:102620003ED014B1462C38BF4624A41C14F0030F2E
:102630001CBF44F00304641C04F084FA01282FD169
:1026400004F08CFDD6F8EC01C568284604F0C8FCFF
:1026500004F09DFDD6F8E001D6F8F421904288BF41
:102660001046C6F8F401A86938B1502181F31188E9
:10267000BFF34F8FBFF36F8FFEE78CB104F10A00F9
:1026800004F0B6FD30B9A861284600F00BF800252B
:10269000284670BD40F80A5B0021A861EC616962C0
:1026A000284670BD70B50546A86910B10A3804F017
:1026B00049FE0021A96104F051FD0D4E286906F57F
:1026C000F071884208BF012405D0294606F5F07054
:1026D00004F04CFC002404F05AFD44B9D6F8F8018B
:1026E000BDE8704000230022002104F0C7B870BD8F
:1026F00070D601204E657442756653656D0000000A
:102700008268016900685218101A884228BF401A6E
:10271000704710B5DFF8384804F1140004F016FCD7
:102720002046BDE8104004F011BCF0B581B004466D
:102730000D46164602F022FB002858D0022C07D086
:10274000502080F31188BFF34F8FBFF36F8FFEE7E8
:10275000DFF8FC07C16911F1010F07D0502080F3A9
:102760001188BFF34F8FBFF36F8FFEE7806810F1C2
:10277000010F07D0502181F31188BFF34F8FBFF3B2
:102780006F8FFEE7112E14D1022D0AD14C27384647
:1027900004F02EFD040023D14FF0FF34204601B099
:1027A000F0BD502080F31188BFF34F8FBFF36F8FC0
:1027B000FEE7062E07D0502080F31188BFF34F8F1D
:1027C000BFF36F8FFEE7012D08BF4FF4CC77DED04B
:1027D000502080F31188BFF34F8FBFF36F8FFEE758
:1027E00004F01EFE050007D1204604F0ABFD4FF0BB
:1027F000FF34204601B0F0BD3946204603F086FF85
:102800006560112E04BF04F1380004F09FFB04F151
:10281000080004F0A8FB41F28830E06120626461A6
:102820000220062E84F8260084F8276019D140F291
:10283000B450A4F84A00A4F84C0040F66830E066B2
:1028400020670120C4F8D0000020216FDFF80427A2
:102850004908E1FB0220800A022838BF0120C4F8A1
:10286000D400204601B0F0BD2DE9F04784B0044605
:102870000020002C18BF14F1010F884691461E4617
:10288000019005D0A06918B194F82700112805D04F
:102890006FF0150A504604B0BDE8F087A06BF0B9A0
:1028A000E1690191080014D0F10612D402A803F0E6
:1028B000B1F901980090002360680122412104F0E1
:1028C000BEFDA06B58B901A902A803F0C5F9002804
:1028D000EFD06FF00A0A504604B0BDE8F087002838
:1028E000F7D004F03BFC606CC76816F0040404BF2A
:1028F000384604F075FB0C9D04F049FCF869A0F122
:102900002A0A1DB1388C688079696960F107B86955
:1029100012D4D145C8BFD146CA4600F12A01524659
:10292000404600F027FF002CD5D13846FFF7BAFE0D
:10293000504604B0BDE8F0872A30C8F8000004B063
:102940005046BDE8F08700002DE9F043884600BFFF
:1029500032A185B0D1E90097CDE903970025B8F100
:10296000000F1E4607D1502080F31188BFF34F8F10
:10297000BFF36F8FFEE7914640F2DB51894549D2A4
:102980000746B86930B900220021384600F04AF8FD
:1029900000283FD1386A0090F20648BF0095F00742
:1029A00017D401A803F036F9009909F12A00FFF7BE
:1029B0002CFE04002ED0A0694A4641462A3000F081
:1029C000D9FE694601A803F047F9012806D1009510
:1029D00004E0404601F0D6FE04001BD00C9809F13B
:1029E0002A01E16142882284B9686184406860619B
:1029F000A06997F826108171049403A8009901F04A
:102A0000B8FF012808BF4D4604D0F0075CBF204640
:102A1000FFF748FE284605B0BDE8F083040000003B
:102A20000000000070B584B004460D4601F064FE5D
:102A3000002638B1502080F31188BFF34F8FBFF3C9
:102A40006F8FFEE7002C18BF14F1010F21D0A06991
:102A5000F8B909218DF8041002941DB16988080A9B
:102A600040EA0120A0844FF0FF3101A801F081FF6E
:102A700020B96FF08B06304604B070BD4FF0FF30C8
:102A80000090002360680122102104F0D8FCA069A6
:102A900008B96FF01506304604B070BD2DE9F04F4F
:102AA000064685B00D4696F82710DFF8A44406299F
:102AB0009A464FF000080EBF039404F114010391ED
:102AC0003EB9502080F31188BFF34F8FBFF36F8F53
:102AD000FEE716F1010F07D1502080F31188BFF3F4
:102AE0004F8FBFF36F8FFEE75DB901ADADF8068084
:102AF0003DB9502080F31188BFF34F8FBFF36F8F24
:102B0000FEE76888002853D196F82700CDF80080AA
:102B1000002706284FF47C4926D0143424E0002CEA
:102B20003CD0E06804F1080100E04068884235D0FC
:102B300002685A4511D0406888422FD002685A4531
:102B40000BD04068884229D002685A4505D04068B9
:102B5000884223D002685A45E7D1F8B1A9F10109AA
:102B600000271FFA89F1D1B1684603F02BFDB0B1FF
:102B7000BDF8000048F2082202FB00F10A44D20F1F
:102B800000EB822000F5806080B2070A47EA002748
:102B900002F0F4F800281FFA87FBC0D1BFB26F80A3
:102BA000688828B96FF07C08404605B0BDE8F08F12
:102BB000BAF1000F03D096F8270006280AD06988DA
:102BC000039800F088F928B16FF06F08404605B00F
:102BD000BDE8F08F6888B060020A42EA0022B28441
:102BE00006F10801039804F0C1F9404605B0BDE8BC
:102BF000F08F00B583B00A220190002814BF10F1B5
:102C0000010F00208DF8002008D00021684601F057
:102C1000B0FE00280CBF4FF0FF30012003B000BD14
:102C200030B5044681B094F82700062828D1E06F1B
:102C300008B1FFF737FD04F1D80000F07BFE606FAC
:102C400008B104F07FFBA06F08B104F07BFBDFF854
:102C50000023A18CD36800E05B6802F10800834286
:102C60000ED0DD6895F85300012804BFA88C884277
:102C7000F2D1B5F84E000028EED0401EA5F84E0067
:102C8000A06918B104F1080004F0AAF994F827002B
:102C900011280BD107E0606CC568284604F0A0F944
:102CA0002846FFF7FFFCA06B0028F4D1606808B14C
:102CB00004F0ACFC204604F045FB002001B030BD20
:102CC00090F82730062B17D104290CD1816F99B9C0
:102CD000B0F84C3012689A18521EB2FBF3F14B4315
:102CE000036700207047052903D01168C1660020E2
:102CF0007047416F0029F8D06FF015007047000051
:102D000030B5114604006FF0150218BF14F1010F21
:102D100081B0104600F0DD80122900F2D880DFE893
:102D200001F00A0F1DD63E3ED6D6D6D6D6778744BA
:102D300097BCD6D62A001868E06101B0002030BDEB
:102D400094F827101868112904D141F2883188427B
:102D500088BF0846206201B0002030BD94F82600EC
:102D6000002B0CBF00F0FD0040F0020084F82600AC
:102D700001B0002030BD94F82710062940F0A9804A
:102D800059681A688A4280F0A480E56E8D42C0F0CE
:102D9000A08062665868A06601B0002030BD204661
:102DA00001B0BDE830401A468AE794F8271006299A
:102DB00001BFA16F0029616F002940F08A80B4F83B
:102DC0004C1018680818401EB0FBF1F54D432567FC
:102DD000002094F82750062D17D19A68E266DA6829
:102DE000C4F8D0205B6894F8D820C4F8D430D30756
:102DF0006FD5D4F8D020D4F8D4304A435943C4F81E
:102E0000DC20C4F8E01001B030BD104601B030BD88
:102E100094F8271006295CD11868216C002814BF8B
:102E200041F0080121F008012164002001B030BD0B
:102E300094F8271006294CD11868216C002814BF7B
:102E400041F0100121F010012164002001B030BDDB
:102E500094F8271006293CD11868D4F8D810002817
:102E600014BF41F0020121F00201C4F8D810D4F8D7
:102E7000D800C0F3400038BB94F85300042823DD89
:102E8000204600F0B5FBF8B10120A4F84800062068
:102E900001F048FD002001B030BD94F8271006294C
:102EA00017D11868216C002814BF41F4802121F447
:102EB000802121640121206CA4F8481040F4807026
:102EC0002064062001F02EFD002001B030BD6FF01F
:102ED0006C0001B030BD70B504460E4601F04EFFE7
:102EE0000025002818BF002C1CD0E06804F1080160
:102EF00000E04068884215D00268B24211D04068B4
:102F000088420FD00268B2420BD04068884209D094
:102F10000268B24205D04068884203D00268B242DB
:102F2000E7D10546284670BD10B50146DFF8BC065E
:102F3000FFF7D1FF002448B1C4683CB9502080F3AA
:102F40001188BFF34F8FBFF36F8FFEE7204610BD90
:102F5000D8DA0120B0F98CB310B50446A06A002875
:102F60001EBF2168C1F30321002905D0226B0A434B
:102F70002263006804F001FB217801F07F012160E9
:102F8000606800281CBF002904F0F7FA00202060C8
:102F900010BD00002DE9F04307460026002F18BFA2
:102FA00017F1010F87B00D469046B1460DD0B869B4
:102FB00058B197F82700062807D1386CC0F3C00035
:102FC00088B997F8530001280DD04FF0FF34204600
:102FD00007B0BDE8F08301980090002378680122D3
:102FE000042104F02CFA02F0CFF9386CC0F3C000D1
:102FF00000280CBF7C6D3C4654B100207865216CE4
:10300000C1F3400000281ABF21F00201216400240E
:1030100002F0C2F904B38DB1A06B010201F47F018B
:10302000020A41EA006102F47F42114341EA106161
:103030006960A08F010A41EA00216980B8F1000FA0
:103040001CBF0820C8F80000386CC0F3C00018B9D5
:103050004FF0010903E000BFB9F1000F08D00721CC
:103060008DF8081003974FF0FF3102A801F081FCA2
:1030700074B93EB9F9690191080009D004A802F0B9
:10308000C9FD012601A904A802F0E6FD0028A2D08E
:10309000204607B0BDE8F0832DE9F0430646002442
:1030A000002E18BF16F1010F85B090461D460BD0BB
:1030B000B06948B196F82700062805D1E807894687
:1030C00008D5B9F1000F05D16FF01507384605B0E6
:1030D000BDE8F083706F98B3FFF712FB0746002F2F
:1030E0004DD077DDE80766D42D06AD0E05F001055D
:1030F00000954346706F4A46002101F0BBFE316CDB
:103100000746C1F3C010002864D0706FC36802691D
:1031100000688018C31A5B1E9342B06E28BF9B1ACA
:10312000834257D3022060F3C81131640620012185
:10313000A6F8481001F0F6FB384605B0BDE8F0836C
:1031400000271CE0002F45D44CB9F169019108001B
:1031500040D0E8063ED402A802F05CFD012401A99B
:1031600002A802F079FDA8BB0198009000237068C6
:103170000122612104F063F9706F98B9002796F875
:10318000530010B108380128DCD8306CC0F3C040BF
:1031900000280CBF6FF07F076FF00B07384605B0B3
:1031A000BDE8F0838268016907685218D71B8F4217
:1031B00095D37F1A93E7746F25682046FFF7A0FA2E
:1031C000074660191430C9F8000021694D1BAF4251
:1031D00088BF2F46384605B0BDE8F0832DE9F04F93
:1031E0000546002985B099466FF015004FF0000B99
:1031F0008A4600F0B9800127002D18BF15F1010F94
:1032000090462FD0A96969B395F82710062929D1CE
:10321000296CC1F3C04038BB95F8530000281CBF8F
:10322000082809282BD0C1F3803030BBB8F1000F3B
:1032300023D0A86F28BB2E6F361DB608B60006F146
:10324000140003F0D5FF040011D1286C40F40020D5
:10325000286408212846FDF7E3FCA86F88B96FF0C1
:103260000B070EE007460CE06FF00B0709E0142196
:1032700003F04CFA2661AC6703E0002701E06FF031
:103280007F07384600286FDDAA6F916813691268BE
:10329000D218511A491E99422C4628BFC91A09F062
:1032A0001009454637E00027A06F334652460021FB
:1032B00001F08CFD06460FB102F06EF80120A4F873
:1032C000480001F019FA10B9062001F02BFBAD1BE4
:1032D0003ED0B244BBF1000F34D1216A0191080005
:1032E00036D0B9F1000F33D102A802F093FC4FF0B1
:1032F000010B01980090002360680122222104F054
:103300009EF8A06F8168026900688018411A491E02
:10331000914228BF891A002D1ADD0029DADD206CC0
:103320002E468D42C8BF0E46C0F300100028BAD00A
:10333000AE42B8D102F028F8206C40F040000127DE
:103340002064B1E701A902A802F086FC0028D0D0D1
:10335000B8EB0501084607D194F853000628ACBF26
:103360006FF07F006FF01B0005B0BDE8F08F30B547
:1033700004460025002C18BF14F1010F81B00BD0BA
:10338000A06948B194F82700062805D194F85300A5
:10339000002818BF082804D06FF05E05284601B049
:1033A00030BD4FF6FF708142A8BF0146206CA4F8E3
:1033B0005010C0F3C000D8B1606F18B185600560CF
:1033C000C5604560A06F18B185600560C560456047
:1033D000462104F1820003F099F9C02104F1D800DC
:1033E00004F042F904F1400045F008010560216451
:1033F00001212046FDF714FC284601B030BD00B580
:10340000002818BF10F1010F81B016D08169A1B159
:1034100090F82710062904BF90F8531005290CD105
:10342000016C41F0200101220164A0F8482006202F
:1034300001F078FA002001B000BD6FF05E0001B02D
:1034400000BD00002DE9F04381B0814602F015F87F
:10345000DFF81873BE6AFC68B862861B4FF47A788E
:103460000AD1012608E000BF4FF00008B5F8480077
:1034700010B1404598BF804607F108018C421DD02D
:10348000E568B5F8480064680028F5D0864203D2A4
:10349000801BA5F8480007E00020A5F84800284652
:1034A000FCF77AFE0028E7D428680028DED0B9F1BE
:1034B000000FD9D02846FFF74FFDD7E7404601B0AF
:1034C000BDE8F083F0B4DFF8A452EE68002401E018
:1034D0000446766805F10800864212D0F068878CB1
:1034E0001FFA81FC6745F4D190F85370012FEFD09B
:1034F000878F1FFA83FC674504BF876B9742E8D12B
:1035000000B92046F0BC70472DE9F043064681B073
:10351000746F0D4691469846ACBBF16E706E0F46C7
:1035200040B901EB81029200DFF84432A2FB033084
:1035300080097066B06E40B901EB81021101DFF8BD
:103540003032A1FB03308009B0663F1DBF08BF00C9
:1035500007F1140003F04CFE040008D1306C40F475
:103560000020306408213046FDF75AFB04E01421A6
:1035700003F0CCF8276174672CB94FF0FF34204674
:1035800001B0BDE8F08343464A462946204601F093
:103590001DFC044625BB316CC1F3C010A8B9706F87
:1035A000C368026900688018C31A5B1E9342706E7C
:1035B00028BF9B1A984208D3012041F4C071A6F895
:1035C00048003164062001F0ADF9306840F0010098
:1035D000306096F82C10CA0748BF40F48070306005
:1035E000204601B0BDE8F08300000000ECDA0120C5
:1035F00090F82710062902D06FF015007047806FF1
:1036000038B18268016900685218101A884228BFD0
:10361000401A70472DE9F04F81B004464FF0000981
:103620000022524B03F11C0A03E0002AFAD003F1F6
:10363000080ADAF804B0D34500F07F80DBF80CC04C
:10364000DCF82800A04240F073809CF82700062890
:103650004FF0000E5ED1DCF84080DCF82C500020EA
:1036600018F0060F08BF0120E90723D59CF8536026
:10367000012E09D1DCF8541000291EBF096CC1F3DA
:103680004001002916D013E008F00A010A290FD0E2
:1036900000281CBFDCF8741000290BD08F680E695D
:1036A0000968BF19791AB14228BF891B002901DDB9
:1036B0004FF0010E690706D59CF85310082914BF76
:1036C00000294EF0040EA9072ED588B1DCF8780049
:1036D00050B18568016900684018451B6D1E8D4218
:1036E00004D36D1A02E000BFDCF87050002D0DDC31
:1036F000C8F3C020C0B19CF85300042814DDC8F3FF
:10370000003088B948F48050CCF840004EF0020EEA
:103710000AE000BF9CF82C00C10740F10580DCF8EE
:10372000380008B14FF0010ECCF830E04EEA09093C
:10373000DBF804B0D3457FF481AF521C012A7FF738
:1037400074AF2068002103F0F7FE20EA090111F0B0
:103750000F011CBF206803F0EFFE206849F0100144
:1037600001B0BDE8F04F03F008BF0000D8DA012037
:103770003E0AD7A362B38B0708D0521E11F8013B53
:1037800000F8013B00F024808B07F6D1830740F05E
:10379000208000BF103A07D330B4B1E83810103A97
:1037A000A0E83810F9D230BC530724BFB1E80810A4
:1037B000A0E8081044BF51F8043B40F8043BD2078E
:1037C00024BF31F8022B20F8022B44BF0B78037082
:1037D0007047121F17D35B0009D151F8043B20F842
:1037E000023B1B0C121F20F8023BF6D20BE051F8F3
:1037F000043B00F8013B1B0A20F8023B1B0C121F84
:1038000000F8013BF3D238BF121D521E24BF11F83D
:10381000013B00F8013BF8D87047F0B4024610684D
:1038200095681318506803EB5004C0071BD54D442E
:1038300019E013F8017B05F8017B491EF9D190B11D
:1038400013F8011BC6F38106032E08BF13F8016BA2
:1038500001EB062149422944801C11F8016B05F84F
:10386000016B401EF9D1A3420ED013F8016B16F084
:10387000030104BF13F8011BC91C30090F28DCD158
:1038800013F8010B0F30D8E7F0BC02F10C007047C1
:1038900000F108024A6003698B60026951600161AE
:1038A00008610168491C0160704730B4024600207D
:1038B000D2F8B03000E05B6802F1AC04A34204D05F
:1038C000DC6825688D42F6D1204630BC7047D0F8C0
:1038D000A41009B10020704701698069091A01F03C
:1038E0000041481E8041C00F704710B50168002993
:1038F0000FBF0024C068C46803F072FB204610BDEF
:1039000010B50446A06A18B104F1180003F068FB72
:1039100000212160A1606161E06B18B104F12C000D
:1039200003F05EFB04F12C01BDE81040DFF8140445
:10393000AEE700002DE9F04180460024DFF8045492
:1039400008F1900703E0002CFAD008F1A407B8684A
:1039500010F1010F1AD116E0F868C668B06A18B104
:1039600006F1180003F03CFB00213160B160716189
:10397000F06B18B106F12C0003F032FB06F12C01BC
:103980002846FFF785FF38680028E5D1641C012C24
:10399000D9DDBDE8F08100002DE9F043DFF8A45344
:1039A00081B007466869884616469946B8BB2846DE
:1039B00003F0CCFA4FF4C06003F01AFC04002DD0E1
:1039C0004FF4C06102F0A2FE0020214601F12C025A
:1039D0008963496205F108035360801C2B69936079
:1039E0002B695A602A61156101F140032A68521C53
:1039F0002A608B6701F140024A6605F108030B67F4
:103A000001F16C032A694A672A6953602B61CD670B
:103A100080312A68521C18282A60D7DB6C61099C07
:103A2000089D07F1900003F091FA07F1A40003F05C
:103A30008DFA07F1400003F089FA07F1540003F012
:103A400085FA07F1680003F081FAC7F80480BE60C8
:103A500023462A464946384601B0BDE8F04330B413
:103A6000002404600125056083B1B0F8BE400CB1AC
:103A7000A0F8BE30B0F8BC40A34200D334B94468CB
:103A8000A0F8BC30B4FBF3F45C4344604FF4FA7329
:103A90008363C16001618161C261026242638262CB
:103AA000C26230BC704700002DE9F043044681B08B
:103AB000D4F810900D460020A945904684F83C00AB
:103AC000206340D14345C0F08180D4F8A40008EBC6
:103AD000090698B33746A84402E000BFFFF710FF7D
:103AE000D4F8B020002004F1AC039A4218D0D36877
:103AF0001968B1EB050E5CBFA8EB010EBEF1010E1B
:103B000007D428B1D0F800E0AEEB0101491E00D483
:103B10001846526804F1AC039A42E8D10028DDD17E
:103B200031462046FFF7C1FE20B181688E19FFF7AC
:103B3000E7FEF5E7B7421CBFF71B276326610020AD
:103B400001B0BDE8F083681C81453FD008EB050655
:103B5000A6EB0900002839DD834206DA4FF0FF307A
:103B600001B0BDE8F0838068861931462046FFF732
:103B70009CFE0028F7D17448C4F88000290201F4A3
:103B80007F01280A41EA056100F47F40014341EAD0
:103B90001561C4F88410300200F47F00310A40EA55
:103BA000066001F47F41084340EA1660C4F88800CB
:103BB00029460C2084F83C002046FFF776FE28B901
:103BC0006049086838B9002184F83C104FF0FF3094
:103BD00001B0BDE8F083CF68FE683FB9502080F3A4
:103BE0001188BFF34F8FBFF36F8FFEE73EB95020B0
:103BF00080F31188BFF34F8FBFF36F8FFEE7384616
:103C000003F0EEF9394604F1A400FFF741FE01F09C
:103C100034FC30614FF48021002070617161C6F87E
:103C20000480C6F808803560A5EB090001B0BDE846
:103C3000F08300002DE9F04B82B0C66F0027EEB193
:103C4000D6F804C0B568654518DA7469C4F3004451
:103C5000A4B99DB1ACEB05040F46A142C8BF2746ED
:103C60007D196545A4BF0024C467B560C91B446BBA
:103C7000BA183C199A424463A8BFD21A0546019368
:103C80000E469046002E59DDB5F8BC90D5F834B0FC
:103C90002C490868002851D0C8680090C46838B919
:103CA000502181F31188BFF34F8FBFF36F8FFEE771
:103CB00044B9502080F31188BFF34F8FBFF36F8F4B
:103CC000FEE700BF03F08CF9009905F19000FFF7C3
:103CD000DFFD01F0D2FB2061C4F804900020606198
:103CE000C4F8089030464E45C4F800B0C8BF4846F6
:103CF000A060C4F80C80361A019980448845A8BF9A
:103D0000A8EB0108696BC719411804F11800696331
:103D100005F15C024260696E816005F154016A6ED2
:103D2000506068660161686D401C68656168A068E4
:103D30008842A6BF0020E867EC67A3E7384602B0D8
:103D4000BDE8F08B04DB01200101050AD0F89000EA
:103D5000401E8041C00F704730B40346586D0028A4
:103D60001EBF186EC068002814D01A6A9C6A94425C
:103D70002CBFA21A00220D46914288BF15468468C6
:103D8000491BA1428041C043C00F22B19968A218CB
:103D9000914200D2002030BC704770B516460546EF
:103DA00000223260286CA0B9A86E00281EBF686F80
:103DB000C468002C0FD001F060FB21696269411AD0
:103DC000012000FA02F2A86B424391423CBF511A13
:103DD0003160012070BD686D00281EBF286EC46868
:103DE000002C0CD02846FFF7B7FF40B12868C0F37D
:103DF00040000028EDD0A06861688842E9DA002020
:103E000070BD2DE9F04105468846164605F1400093
:103E1000FFF76BFD0400A86AE86241D1A86E002894
:103E20000EBF0024686FC468ACB16769012000FA56
:103E300007F7A86B474301F020FB2169401A87422E
:103E400009D205F16800FFF750FD0400606920F415
:103E50007F40606124D1686D00280EBF0021286E6C
:103E6000C16861B12868C0F3400018B1886849682A
:103E7000884204DB41462846FFF76EFF10B9002058
:103E8000BDE8F08105F15400FFF72FFD0446E86F0F
:103E9000A04204BF0021E9672268A0688218AA62D4
:103EA0003CB9502080F31188BFF34F8FBFF36F8F61
:103EB000FEE7A06A38B1502181F31188BFF34F8F1C
:103EC000BFF36F8FFEE704F1180105F16800FFF7FB
:103ED000DFFC606940F480306061411C61F30700E1
:103EE000606100F0FF00042806D1B5F8BC00A968A5
:103EF0004000884238BFA86001F0BFFA2061206806
:103F0000E862E1683160A068BDE8F0812DE9F04722
:103F100006460F46D6F89CA015464FF0000909E06A
:103F200000291FBFA16A002904F1180003F058F806
:103F300008EB070706F198018A4545D0E81B401EAB
:103F400042D4DAF80C40DAF804A022680021B81A4A
:103F5000401EEFD5974237D16369D4F80880C3F388
:103F6000404038BB4244521B521E2DD543F400330F
:103F7000636103F0FF03012B02BF20684044A842A5
:103F800017D101F07AFA2169411AB06B884203DB3C
:103F9000C0EBC000411804E0490000EB400201EB17
:103FA0004201881001EB5071C9103229B8BF32218B
:103FB000B1630121306A8742B2D140443062C144CA
:103FC0002046FFF79DFCB3E74846BDE8F0870A4668
:103FD000016A8B1A48BFFFF799BF002070470000A5
:103FE0002DE9F04105460E46FFF790FF6F6F8046C2
:103FF00028E0F9684A697F68C2F3404010BB08684E
:10400000301A401E1ED4100A401C60F30F22C2F367
:10401000072003284A6115D1120A12024A6101F1F0
:104020001804204602F0DCFF05F148006060296DAD
:10403000A16005F14001286D44602C652161286C68
:10404000401C286405F170008742D2D14046BDE88B
:10405000F08143002DE9F04F89B001F0A3FEDFF8B5
:1040600094090FF21871C06B0023002202F006FCC5
:104070000128DFF8801914BF0120002008644FF4E4
:104080007A748C63DFF8700901F0C4FDDFF864090D
:10409000DFF860198A6A4463012060F30102084670
:1040A00001218262016510E0E06442F21075002097
:1040B00002F077FA656204F1180001F0ABFD616966
:1040C0002562012060F301016161DFF8285905F1E3
:1040D000140000F034FB40B103218DF814100022CD
:1040E0000692002105A800F044FCE86B02F0F6FD02
:1040F000441E05F12800A44100F021FBA96CE40F47
:10410000002918BF002C00D1B0B12046FFF79AF962
:10411000044605F12C0001F07DFDA86A6C63002CBB
:104120000CBF40F0020020F00200A8620021A86A43
:10413000A96440F00100A86242F21070297DCA070C
:1041400003D5296A814238BF686A6A6B824288BF98
:104150000246E86B694602F04BFC20B94FF0FF3194
:104160008DF800109EE29DF900100B2900F29A8252
:10417000DFE811F00C0045005E0263027F02980246
:1041800087028C02980266027B0283020020E864A8
:104190006969686D490849006961012808BF02F032
:1041A00000FA0120686502F0D3F900F0FDFD012856
:1041B00013D040F6B83001F062F801F0F3FDE86B7F
:1041C0000FF2B8510023002202F058FB012807BF6C
:1041D000002129640120286464E2E86442F210743A
:1041E000002002F0DEF96C6205F1180001F012FD0A
:1041F00069692C62012060F30101696152E2019C4E
:10420000606A0790002161628846C4B1E0690E28A7
:104210000ED3A1698A89082A19D0B2F5C16F00F0BE
:10422000EE81B8F1020F00F0F281B8F1030F02D075
:104230002046FEF737FA079C002CE1D132E25020ED
:1042400080F31188BFF34F8FBFF36F8FFEE72228F3
:10425000EED30E460E38B77BBF0007F03C07B842DE
:1042600028BF142FC0F0C881F07D06904FF60F7361
:10427000D6F81E20B08A18424FF0010840F00B819A
:10428000B07B45380B2880F00681DFF8E80A4069EA
:10429000824218BF12F1010F05D02B699A4218BF54
:1042A000002840F0F880F07D012800F0968006F1AB
:1042B0000E02104602F003024FF0000A5FEAC27ECF
:1042C0003B46CDF808A0CDF814A005D523B110F8D1
:1042D00001EB8DF815E05B1E012A18BF022A06D1FA
:1042E000012B04D930F802EBCDF808E09B1E4FEA11
:1042F000930E00EB8E0CACF10C0C604580F023802B
:10430000DDF808E0D0F80090F144F145D0F804E081
:1043100038BF0AF1010ACE44CE45D0F8089038BF24
:104320000AF1010AF144F145D0F80CE038BF0AF176
:10433000010ACE44CE4538BF0AF1010A103060456B
:10434000E0D3CDF808E0BDF808E0BDF80AC0F444B9
:1043500003F00F03E2444FEA530900EB490C6045B8
:10436000CDF808C080F0148030F802BBDA44604514
:104370003EBF30F802BBDA4460453EBF30F802BBB6
:10438000DA4460453EBF30F802BBDA446045EBD307
:10439000DB0744BF00788DF8140005985044029064
:1043A000BDF80830BDF80A00C0180290BDF808300A
:1043B000BDF80A00C018D20706D5030203F47F43F4
:1043C000C0F3072242EA03000204120E42EA00226E
:1043D0004FF6FF7092B282425DD1E06922285AD333
:1043E0008A7B920002F03C0202F10E03984252D303
:1043F000B1F810C04FEA1C2343EA0C239BB203F12F
:104400000E0C604547D391F817C001EB020EBCF1CA
:10441000110FAEF1140E07D102F1160A50453AD32E
:10442000BEF8280090B936E0BCF1060F04D102F1C5
:10443000220948450AD22EE0BCF1010F18BFBCF199
:10444000020F28D102F11609484524D39B1A082BE4
:1044500022BF40F2F650821A9A421CD3BCF1020FDE
:1044600004DC1A460EF12201002005E003EB0C00EB
:1044700003F108021A3180B200F0EEFBC0434FF6A0
:10448000FF7182B202B908460204120E42EA00220B
:1044900092B28A4201D04FF00008B8F1010F7FF4C8
:1044A000C0AE142F16D9A069E269A7F11409A2EBD6
:1044B000090200F10E01223A3944223003F0D8F803
:1044C000E069A0EB0900E061B17B01F0F00141F08F
:1044D0000501B1730698112817D0D6F81A10B01D2F
:1044E00001F082FE069801282FD0062802D011285C
:1044F0000BD096E62046FCF7A1FD0128A86C08BF6A
:104500004FF00308401CA8648BE6A069C28C110A16
:1045100041EA0221E26989B22A2A28BF08296BD31D
:1045200008392A3A91423CBF2A31E161418C218409
:10453000D0F81A106161818C204603F04DF90128F2
:104540007FF46FAE4FF003086BE6E0692A2853D37F
:10455000A169D6F81E00DFF81C28536998427FF441
:1045600060AE91F822004FF0000810B108282ED05C
:1045700057E60A8A130A43EA0223A3F11C0201F157
:104580002A03002601E01B1D761CB7B21FFA82FC2D
:10459000674518D21F78782F14D1761CB7B26745BB
:1045A00011D25F78782F0DD1761CB7B267450AD249
:1045B0009F78782F06D1761CB7B2674503D2DF7893
:1045C000782FE0D00220C98C02F062F829E681F849
:1045D00022804FF6F773D1F81A00C1F81E004FF091
:1045E00002085069C1F81A00888C9842ACBF00F5E7
:1045F00084700830888414E64FF0000811E62A28F9
:10460000FFF416AE084601F09BFD804609E6A66958
:104610000622B11D3046FFF7ADF80622DFF8541729
:10462000B01DFFF7A7F80121204600F0BFFB02E60E
:104630000198012100F0BAFB34E001F0ADFE31E059
:10464000019C002004900023A08C010A41EA002173
:10465000ADF80E100020A084082203A92046FEF722
:104660001DFA206840F0100018E00198FEF7D8FA13
:1046700018E0019803F048F814E00198FEF7CAFF2B
:1046800010E0A86A40F00200A8620BE0019C2046FE
:10469000FDF75FFF30B1206840F004002060204645
:1046A000FEF75AFC286C00283FF40FAD6969686D6D
:1046B000490849006961012808BF01F072FF2C46D2
:1046C0000120606501F044FF00F06EFB01283FF41B
:1046D000EBAC40F6B83000F0D2FD01F063FBE06BCC
:1046E00026A10023002202F0C9F8012807BF0021FB
:1046F000216401202064E8E400B581B001F052FBA0
:10470000DFF8F0124A6C90420CBF0120002001B08B
:1047100000BD30B5054681B00C46281D01F07AFA7F
:10472000EC60002C28680CBF40F0020020F0020072
:104730002860286840F00100286001B030BD10B545
:1047400004462068C10701D4002010BDC0F340001A
:1047500048B904F10C01201D01F07EFA18B120685F
:1047600040F0020020602068C0F3400020B12169C1
:104770002046FFF7CEFF012010BD00000000000022
:104780000000000030B1343810F0030F01D1006890
:104790007047002070472DE9F043964F83B00446E0
:1047A000386D0D46164699464FF0000838B1502135
:1047B00081F31188BFF34F8FBFF36F8FFEE7F86B64
:1047C00038B1502181F31188BFF34F8FBFF36F8F42
:1047D000FEE7786C38B1502181F31188BFF34F8F19
:1047E000BFF36F8FFEE700220821112001F0D1FFF7
:1047F000F86338B9502080F31188BFF34F8FBFF3AF
:104800006F8FFEE70FF2885102F013FBFDF7CAFE2F
:1048100001286AD1A178E0786278090441EA006150
:10482000207841EA022101433960AA78E9782878A2
:10483000120442EA0162697842EA012202437A6084
:10484000B278F1783078120442EA0162717842EA73
:1048500001220243BA6099F8022099F8031099F8EE
:104860000000120442EA016299F8011042EA0122B2
:104870000243FA6078683968014061EA00003861F3
:1048800007F158000ECF0EC006CF06C057F8141D12
:10489000DFF8E0345961B86800281FBF7A6811401A
:1048A0001040814207D0502080F31188BFF34F8F12
:1048B000BFF36F8FFEE70A9906221846FEF75AFFEC
:1048C000FDF727FF07F144003521019000910023F7
:1048D0004FF420720FF2C041DFF8A80400F08FFB04
:1048E0008046404603B0BDE8F083F86B02F008FA5A
:1048F000C7F83C80404603B0BDE8F08330B418B13F
:10490000DFF870446569056011B13A4844680C608D
:1049100012B138488168116013B13648C168196016
:1049200030BC704710B582B0324C8DF800000020CA
:104930000190206D00289DF9000003D178B100207E
:1049400002B010BD06280AD1A06A40F00200A062A1
:10495000E06B02F0C3F910B1012002B010BD01F00C
:1049600021FAE06B00230022694601F087FF02B0C4
:1049700010BD70B505461F4E306D0C4695F9001000
:1049800008B961B170BD062909D1B06A40F00200D2
:10499000B062F06B02F0A2F908B1012070BD01F025
:1049A00001FA716C884201D104B10024F06B2246F7
:1049B0002946BDE87040002301F060BF10B50446F1
:1049C00006222146DFF8C00302F04AFF30B106227A
:1049D00021460FF2CC3002F043FF48B9A1890A0A00
:1049E00042EA0122012092B240F201618A4200D2E1
:1049F000002010BD98D90120C4D90120010201F482
:104A00007F01020A41EA006102F47F42114341EA58
:104A1000106101F10051B1F1805F8041C00F70471A
:104A20000202030A02F47F0203F47F431A4342EABC
:104A300010620120087000234B70100C4FF05E0CC8
:104A400000F07F00130A81F802C0C8700B714A7130
:104A5000704700002DE9F041222982B02DD3877BD9
:104A6000BF0007F03C0707F10E03994225D3038AE4
:104A70001C0A44EA0324A4B20E34A1421DD3C57D0E
:104A8000C319112DA3F1140C1DD107F1160399427E
:104A900013D30CF1280814002FD00021A8F800101F
:104AA000018A0B0A43EA01239BB2DB1B082B22BFBE
:104AB00040F2F651CF1B9F422AD241F2342080B2FD
:104AC00002B0BDE8F081062D06D107F1220399421C
:104AD000F3D30CF13208DEE7012D18BF022D06D109
:104AE00007F116039942E8D30CF12408D3E744F206
:104AF000213080B202B0BDE8F081B8F80010002982
:104B000008BF112DCCD1002080B202B0BDE8F081E9
:104B1000022D00F383800CF1220606F003014FF012
:104B2000000E11F00100CDF800E0CDF804E004D053
:104B300016F8012B8DF805205B1E012918BF0229EC
:104B400005D1022B03D336F8021B00919B1E990856
:104B500006EB81020C3A96421CD2009937687F1806
:104B60008F42716838BF0EF1010EC919B942B7689A
:104B700038BF0EF1010E7F188F42F16838BF0EF179
:104B8000010EC919B94238BF0EF1010E1036964216
:104B9000E4D3009103F00F03BDF80010BDF802202C
:104BA0005218590806EB41018E42964480F0148059
:104BB00036F8022B96448E423EBF36F8022B9644BE
:104BC0008E423EBF36F8022B96448E423EBF36F8E8
:104BD000022B96448E42EBD3D90744BF32788DF82E
:104BE0000420019971440091BDF80020BDF8021025
:104BF00089180091BDF80020BDF802108A1830B164
:104C0000130203F47F43C2F3072040EA03021104B6
:104C1000090E41EA022189B2C94308E000F11A01F4
:104C2000581903F1080280B200F016F8C143002CB5
:104C300088B201D1002801E018B9112D08BF4FF644
:104C4000FF710804000E40EA01200CB1A8F8000032
:104C500080B202B0BDE8F081F0B4030A82B043EA4A
:104C6000002301F0030400269BB214F0010000931E
:104C700001960ED0009D009B2D0205F47F45C3F3E5
:104C800007231D43009522B111F8013B8DF8053033
:104C9000521E012C18BF022C07D1022A05D3009BFB
:104CA00031F8024B1C190094921E930801EB830407
:104CB0000C3CA14218D2009B0D68ED189D424B6838
:104CC00038BF761C5B19AB428D6838BF761CED1877
:104CD0009D42CB6838BF761C5B19AB4238BF761C4F
:104CE0001031A142E8D30093BDF80030BDF8024076
:104CF00002F00F02E4185308361901EB4307B942DA
:104D000080F0148031F8023B1E44B9423EBF31F8B6
:104D1000023BF618B9423EBF31F8023BF618B942E1
:104D20003EBF31F8023BF618B942EBD3D20744BF7D
:104D300009788DF8041001998E190096BDF80020AD
:104D4000BDF8021089180091BDF80020BDF80210CE
:104D5000891830B10A0202F47F42C1F3072040EA09
:104D6000020102B0F0BC0804000E40EA012080B24B
:104D70007047000010000020034870470348006D92
:104D800070470000554000081000002098D901200D
:104D90004E657445766E740049502D7461736B00D6
:104DA000FFFFFFFFFFFF00000120704730B5054601
:104DB00081B00C46E969A86989B201F06AFC14B1B6
:104DC0002846FDF76FFC012001B030BD2DE9F0430E
:104DD000074681B0BD683E6938688019451B6D1E65
:104DE000B542884628BFAD1BA84534BFA5EB0805D2
:104DF00000259D42914688BF1D46BDB3BC68B8F1F1
:104E0000000F03D04444B44228BFA41BB9F1000FE3
:104E100013D0361BAE4288BF2E4607F1140032462F
:104E200049460019FEF7A6FCAE4206D2AA1B09EBC2
:104E3000060107F11400FEF79DFCB8F1000F05D143
:104E400038692C19844228BF241ABC60F9683A6872
:104E500091428041C00F944238BF80F0010010B1F0
:104E6000944203D201E08C4200D3FC60284601B09A
:104E7000BDE8F0832DE9F043074681B0B8683E698C
:104E80003D688019451BB542884628BFAD1BA84523
:104E900034BFA5EB080500259D42914688BF1D46FD
:104EA00055B33C68B8F1000F03D04444B44228BF66
:104EB000A41BB9F1000F13D0361BAE4207F114004A
:104EC00088BF2E46011932464846FEF753FCAE42D3
:104ED00006D2AA1B07F1140109EB0600FEF74AFCF3
:104EE0000898002808BFB8F1000F05D138692C19BF
:104EF000844228BF241A3C60284601B0BDE8F083F4
:104F00002DE9F04381B00546099889461646984632
:104F100038B9502080F31188BFF34F8FBFF36F8FE4
:104F2000FEE70A9C3CB9502080F31188BFF34F8FF5
:104F3000BFF36F8FFEE75C210091009A5C2A07D0D7
:104F4000502080F31188BFF34F8FBFF36F8FFEE7C0
:104F5000089F00992063A522022084F85900B1001F
:104F6000206B02F0B1FC216B01EB8602161FF608E4
:104F7000F6005FEA090106F007001BD0002204F1E9
:104F8000340308781870087880B1487858704878E9
:104F900060B188789870887840B1C878D870C8783F
:104FA00020B1121D1B1D091D102AEAD3002084F810
:104FB000430001E084F83410372F206588BF37277D
:104FC000E762E764201D01F0CEFF04F1180001F054
:104FD000CAFFC7F138072461A761646200206065D9
:104FE00084F8580042462946304602F00DF8206009
:104FF000204600F077F8204601B0BDE8F0832DE9A7
:10500000F04B8046154682B00E469946A80002F045
:10501000EFF85FEA000B38D05C2002F0E9F80400FA
:1050200030D000210A9F84F85910C4F830B0A5226E
:10503000A900584602F048FC206B00EB85010D1FCB
:10504000ED08ED00310005F0070023D0002204F147
:10505000340308781870087880B148785870487818
:1050600060B188789870887840B1C878D870C8786E
:1050700020B1121D1B1D091D102AEAD3002084F83F
:10508000430009E0584602F05DF94FF0FF3002B0EE
:10509000BDE8F08B84F83400372F0B9E206588BF65
:1050A0003727E762E764201D01F05DFF04F1180077
:1050B00001F059FFC7F138072461A761646200203D
:1050C000606584F858004A464146284601F09CFF36
:1050D000206006B13460204600F004F8012002B0E0
:1050E000BDE8F08BF0B581B0054602F037F8DFF887
:1050F0001068D6F8AC04401CC6F8AC04D6F89C0482
:1051000050BBC6F89C54D6F8AC0401282FD106F148
:1051100028073824384601F019FF1437641EF9D1E6
:1051200006F2D44001F012FF06F59D6001F00EFF7B
:10513000304601F00BFF06F1140001F007FF06F501
:10514000916001F003FF06F2D440C6F8A00406F512
:105150009D61C6F8A4140AE0D6F8B80438B9E86A24
:10516000D6F89C14CA6A904228BFC6F89C54D6F858
:10517000C804EA6A401C686402EB8203D6F8B414DF
:10518000914238BFC6F8B424C6F8C804291D06F1F8
:10519000280000EB830001F0E9FE01F0F8FFD6F8EB
:1051A000B80470B1D6F89C04C16AE86A814208D29A
:1051B000DFF840284FF080511160BFF34F8FBFF3ED
:1051C0006F8F01B0F0BD30B581B0044601F0C6FF6D
:1051D000DFF82C570CB9D5F89C44201D01F000FFD6
:1051E000A06A18B104F1180001F0FAFED5F8C8045D
:1051F000401CC5F8C804D5F89C0484420AD1211D7E
:1052000005F1140001F0B2FED5F8A804401CC5F861
:10521000A80415E0D5F8AC04401EC5F8AC0420463F
:1052200000F0A6FDD5F8A004006810B94FF0FF31DA
:1052300004E0D5F8A004C168C8684168C5F8CC147A
:1052400001F0A5FFD5F8B804B8B1D5F89C148C428C
:1052500013D1D5F8D00438B1502181F31188BFF3B0
:105260004F8FBFF36F8FFEE7DFF888174FF0805046
:105270000860BFF34F8FBFF36F8F01B030BD70B5C3
:10528000040034D0DFF87856D5F8D00438B1502176
:1052900081F31188BFF34F8FBFF36F8FFEE7D5F80F
:1052A000D004401CC5F8D004D5F8B064D5F89C14DF
:1052B000081D01F095FED5F89C04A4194460B44281
:1052C000D5F89C0405D2011DD5F8A40401F05CFEBC
:1052D0000AE0011DD5F8A00401F056FED5F8CC0473
:1052E000844238BFC5F8CC4400F056F840B9DFF826
:1052F00004174FF080500860BFF34F8FBFF36F8FDC
:1053000070BD000000B587B000210591049103AA8B
:1053100004A905A802F0F6FA059804990290002263
:10532000009201910023039A15A10FF6B510FFF723
:10533000E7FDC0B102F0F0FA012816D1502080F349
:105340001188BFF34F8FBFF36F8FDFF8B4054FF0B5
:10535000FF31C0F8CC140122C0F8B8240021C0F8F5
:10536000B01401F073FE07B000BD10F1010FFAD1C7
:10537000502080F31188BFF34F8FBFF36F8FFEE78C
:1053800049444C4500000000DFF87405D0F8D01403
:10539000491CC0F8D014704770B5DFF86465D6F8C2
:1053A000D0040024002538B9502181F31188BFF3BF
:1053B0004F8FBFF36F8FFEE701F0D0FED6F8D00419
:1053C000401EC6F8D004D6F8D004002851D1D6F833
:1053D000AC0408BB4DE0F068C46804F1180001F0AB
:1053E000FFFD201D01F0FCFDE06AD6F8B4148142F7
:1053F00000EB800238BFC6F8B40406EB8200211D22
:10540000283001F0B3FDE06AD6F89C14CA6A9042D5
:1054100024BF0121C6F8C01430680028DBD16CB16C
:10542000D6F8A004006810B94FF0FF3104E0D6F8B8
:10543000A004C168C8684168C6F8CC14D6F8BC445A
:1054400054B100BF00F0D4F910B10120C6F8C00477
:10545000641EF7D1C6F8BC54D6F8C00448B1DFF8D2
:1054600094154FF0805001250860BFF34F8FBFF3B4
:105470006F8F01F08CFE284670BDDFF88404D0F8F1
:10548000B0047047DFF87804D0F8AC04704700002F
:105490002DE9F44FDFF868B482B0DBF8D024521C59
:1054A000CBF8D0243826DBF8AC2491424FF000082A
:1054B000C0F097810090761E06EB86010BEB81040D
:1054C0004FF0000AA06A002843D0E06A4068E0621A
:1054D00004F13001884204BF4068E062E06AC568B8
:1054E000009800F1080108EBC80201EB8207E06AAE
:1054F0004068E06204F13001884204BF4068E06225
:10550000E06AD0F80C90B9F1000F0CBFDBF89C04F6
:10551000484600F1340147F8080C47F8041C0AF12A
:10552000010AC26ABA60016B7961426C3A6000227A
:10553000C16CF9603A61DBF89C1488420EBF3A7185
:1055400001213971006B00F0FAFB38832437A9453B
:10555000CDD1002ED044AED1DDF800A0DBF8A044C0
:105560002068002841D060684068606004F108014C
:10557000884204BF406860606068C5680AF108013D
:1055800008EBC80001EB800761684868606004F1BF
:105590000801884204BF406860606068D0F80C90E1
:1055A000B9F1000F0CBFDBF89C04484600F1340150
:1055B00047F8080C47F8041CC26ABA60016B7961AD
:1055C000426C3A600022C16CF9603A61DBF89C14CD
:1055D00088420EBF3A7102213971006B00F0AFFBB7
:1055E0003883761C2437A945CED1DBF8A444206843
:1055F000B0440026002841D060684068606004F133
:105600000801884204BF406860606068C5680AF1AC
:10561000080108EBC80001EB80076168486860601A
:1056200004F10801884204BF406860606068D0F8F7
:105630000C90B9F1000F0CBFDBF89C04484600F158
:10564000340147F8080C47F8041CC26ABA60016BC1
:105650007961426C3A600022C16CF9603A61DBF812
:105660009C1488420EBF3A7102213971006B00F020
:1056700066FB3883761C2437A945CED1B044DBF8CD
:1056800014000026002848D0DBF818004068CBF84A
:1056900018000BF11C01884204BF4068CBF81800C9
:1056A000DBF81800D0F80C400AF1080108EBC8003C
:1056B00001EB8005DBF818104868CBF818000BF1F7
:1056C0001C01884204BF4068CBF81800DBF81800C2
:1056D000C768002F0CBFDBF89C04384600F134018A
:1056E00045F8080C45F8041CC26AAA60016B6961A0
:1056F000426C2A600022C16CE9602A61DBF89C14CC
:1057000088420EBF2A7104212971006B00F017FB3B
:105710002883761C2435A742CCD1DBF888140020DE
:105720000029B04458D0DBF88C144968CBF88C14AD
:105730000BF59262914204BF4968CBF88C14DBF8F8
:105740008C14CD680AF1080208EBC80102EB810451
:105750004FEA000ADBF88C044068CBF88C040BF5A8
:105760009261884204BF4068CBF88C04DBF88C045B
:10577000C768002F0CBFDBF89C643E4606F134007E
:1057800044F8086C44F8040CF16AA160306B606165
:10579000716C21600021F06CE0602161DBF89C04F9
:1057A000864208BF21710DD003202071DBF8D01490
:1057B000491CCBF8D014B06A10B1022184F804104F
:1057C000FFF7EAFD0AF1010A306B00F0B8FA208316
:1057D0002434AF42BED150460299804409B1002022
:1057E0000860FFF7D9FD404603B0BDE8F08F000028
:1057F000F0B5434F81B0D7F8D0040026002877D108
:10580000D7F8B044641CC7F8B04426D1D7F8A00438
:10581000006838B1502181F31188BFF34F8FBFF377
:105820006F8FFEE7D7F8A004D7F8A414C7F8A01428
:10583000C7F8A404D7F8C404401CC7F8C404D7F8B8
:10584000A004006810B94FF0FF3104E0D7F8A004BD
:10585000C168C8684168C7F8CC14D7F8CC04844242
:1058600030D326E0D7F8A014C868C56868688442B9
:105870003BD3281D01F0B4FBA86A18B105F118004C
:1058800001F0AEFBE86AD7F8B414814238BFC7F81C
:10589000B40407F1280200EB8003291D02EB83000A
:1058A00001F064FBE86AD7F89C14CA6A904228BFEA
:1058B0000126D7F8A00400680028D3D14FF0FF31AB
:1058C000C7F8CC1407F12801D7F89C04C06A00EB94
:1058D000800292008958D7F8C004022928BF012607
:1058E00058B10126304601B0F0BDC7F8CC04E9E755
:1058F000D7F8BC04401CC7F8BC04304601B0F0BD6A
:10590000E4C10120DFF83028D2F8D00418B1012119
:10591000C2F8C0147047C2F8C004D2F8B40400EB57
:10592000800102EB810101F1280300E0401E53F8E1
:10593000141949B90028F9D1502080F31188BFF318
:105940004F8FBFF36F8FFEE700EB800102EB810109
:1059500001F1300CCB6A5B68CB62634504BF5B68C6
:10596000CB62C96ACB68C2F89C34C2F8B4047047F1
:1059700070B50D4638B9502080F31188BFF34F8FB2
:10598000BFF36F8FFEE7DFF8B047D4F89C2402F135
:10599000180101F0F9FAD4F8B064D4F89C04001DA1
:1059A00001F01EFB15F1010F08D1D4F89C04011D74
:1059B00004F59160BDE8704001F0D8BAD4F89C04B9
:1059C000AD194560B542D4F89C0406D2011DD4F847
:1059D000A404BDE8704001F0D7BA011DD4F8A004BA
:1059E00001F0D2FAD4F8CC04854238BFC4F8CC54C4
:1059F00070BD000004ED00E070B5154638B95020C8
:105A000080F31188BFF34F8FBFF36F8FFEE7DFF88E
:105A10002847D4F8D0243AB9502080F31188BFF336
:105A20004F8FBFF36F8FFEE7D4F89C2441F0004105
:105A30009161D4F89C3403F1180101F097FAD4F87D
:105A4000B064D4F89C04001D01F0CAFA15F1010FEE
:105A500008D1D4F89C04011D04F59160BDE87040A4
:105A600001F084BAD4F89C04AD194560B542D4F86D
:105A70009C0406D2011DD4F8A404BDE8704001F0D6
:105A800083BA011DD4F8A00401F07EFAD4F8CC0446
:105A9000854238BFC4F8CC5470BDF0B581B00E4615
:105AA000144638B9502080F31188BFF34F8FBFF3ED
:105AB0006F8FFEE7DFF88056D5F89C2402F11801BD
:105AC00001F054FA0CB14FF0FF36D5F8B074D5F8A8
:105AD0009C04001D01F084FA16F1010F0AD14CB1AB
